{
  "contractName": "TaskManager",
  "abi": [
    {
      "constant": true,
      "inputs": [],
      "name": "nTasks",
      "outputs": [
        {
          "name": "",
          "type": "uint256"
        }
      ],
      "payable": false,
      "stateMutability": "view",
      "type": "function"
    },
    {
      "inputs": [],
      "payable": false,
      "stateMutability": "nonpayable",
      "type": "constructor"
    },
    {
      "anonymous": false,
      "inputs": [
        {
          "indexed": false,
          "name": "owner",
          "type": "address"
        },
        {
          "indexed": false,
          "name": "name",
          "type": "string"
        },
        {
          "indexed": false,
          "name": "phase",
          "type": "uint8"
        },
        {
          "indexed": false,
          "name": "priority",
          "type": "uint256"
        }
      ],
      "name": "TaskAdded",
      "type": "event"
    },
    {
      "constant": true,
      "inputs": [
        {
          "name": "_taskIndex",
          "type": "uint256"
        }
      ],
      "name": "getTask",
      "outputs": [
        {
          "name": "owner",
          "type": "address"
        },
        {
          "name": "name",
          "type": "string"
        },
        {
          "name": "phase",
          "type": "uint8"
        },
        {
          "name": "priority",
          "type": "uint256"
        }
      ],
      "payable": false,
      "stateMutability": "view",
      "type": "function"
    },
    {
      "constant": true,
      "inputs": [],
      "name": "listMyTasks",
      "outputs": [
        {
          "name": "",
          "type": "uint256[]"
        }
      ],
      "payable": false,
      "stateMutability": "view",
      "type": "function"
    },
    {
      "constant": false,
      "inputs": [
        {
          "name": "_name",
          "type": "string"
        },
        {
          "name": "_phase",
          "type": "uint8"
        },
        {
          "name": "_priority",
          "type": "uint256"
        }
      ],
      "name": "addTask",
      "outputs": [
        {
          "name": "index",
          "type": "uint256"
        }
      ],
      "payable": false,
      "stateMutability": "nonpayable",
      "type": "function"
    },
    {
      "constant": false,
      "inputs": [
        {
          "name": "_taskIndex",
          "type": "uint256"
        },
        {
          "name": "_phase",
          "type": "uint8"
        }
      ],
      "name": "updatePhase",
      "outputs": [],
      "payable": false,
      "stateMutability": "nonpayable",
      "type": "function"
    }
  ],
  "bytecode": "0x608060405234801561001057600080fd5b50600080819055506109c8806100276000396000f3fe608060405234801561001057600080fd5b50600436106100575760003560e01c80631d65e77e1461005c5780633e625c4014610152578063a082a81914610238578063e2c5307514610297578063e95528f1146102b5575b600080fd5b6100886004803603602081101561007257600080fd5b81019080803590602001909291905050506102f0565b604051808573ffffffffffffffffffffffffffffffffffffffff1673ffffffffffffffffffffffffffffffffffffffff168152602001806020018460068111156100ce57fe5b60ff168152602001838152602001828103825285818151815260200191508051906020019080838360005b838110156101145780820151818401526020810190506100f9565b50505050905090810190601f1680156101415780820380516001836020036101000a031916815260200191505b509550505050505060405180910390f35b6102226004803603606081101561016857600080fd5b810190808035906020019064010000000081111561018557600080fd5b82018360208201111561019757600080fd5b803590602001918460018302840111640100000000831117156101b957600080fd5b91908080601f016020809104026020016040519081016040528093929190818152602001838380828437600081840152601f19601f820116905080830192505050505050509192919290803560ff16906020019092919080359060200190929190505050610447565b6040518082815260200191505060405180910390f35b61024061075b565b6040518080602001828103825283818151815260200191508051906020019060200280838360005b83811015610283578082015181840152602081019050610268565b505050509050019250505060405180910390f35b61029f6107f0565b6040518082815260200191505060405180910390f35b6102ee600480360360408110156102cb57600080fd5b8101908080359060200190929190803560ff1690602001909291905050506107f6565b005b600060606000806001858154811061030457fe5b906000526020600020906004020160000160009054906101000a900473ffffffffffffffffffffffffffffffffffffffff1693506001858154811061034557fe5b90600052602060002090600402016001018054600181600116156101000203166002900480601f0160208091040260200160405190810160405280929190818152602001828054600181600116156101000203166002900480156103ea5780601f106103bf576101008083540402835291602001916103ea565b820191906000526020600020905b8154815290600101906020018083116103cd57829003601f168201915b50505050509250600185815481106103fe57fe5b906000526020600020906004020160020160009054906101000a900460ff1691506001858154811061042c57fe5b90600052602060002090600402016003015490509193509193565b60006001821015801561045b575060058211155b6104cd576040517f08c379a00000000000000000000000000000000000000000000000000000000081526004018080602001828103825260208152602001807f7072696f72697479206d757374206265206265747765656e203120616e64203581525060200191505060405180910390fd5b6104d56108ae565b60405180608001604052803373ffffffffffffffffffffffffffffffffffffffff16815260200186815260200185600681111561050e57fe5b81526020018481525090506001819080600181540180825580915050906001820390600052602060002090600402016000909192909190915060008201518160000160006101000a81548173ffffffffffffffffffffffffffffffffffffffff021916908373ffffffffffffffffffffffffffffffffffffffff16021790555060208201518160010190805190602001906105aa9291906108f7565b5060408201518160020160006101000a81548160ff021916908360068111156105cf57fe5b021790555060608201518160030155505050600180805490500391506000808154809291906001019190505550600260003373ffffffffffffffffffffffffffffffffffffffff1673ffffffffffffffffffffffffffffffffffffffff1681526020019081526020016000208290806001815401808255809150509060018203906000526020600020016000909192909190915055507f6f01dc0a3f1209ed3a201b417e08a69b7ab49236895cbcfa0f62b481101d7e1033868686604051808573ffffffffffffffffffffffffffffffffffffffff1673ffffffffffffffffffffffffffffffffffffffff168152602001806020018460068111156106d057fe5b60ff168152602001838152602001828103825285818151815260200191508051906020019080838360005b838110156107165780820151818401526020810190506106fb565b50505050905090810190601f1680156107435780820380516001836020036101000a031916815260200191505b509550505050505060405180910390a1509392505050565b6060600260003373ffffffffffffffffffffffffffffffffffffffff1673ffffffffffffffffffffffffffffffffffffffff1681526020019081526020016000208054806020026020016040519081016040528092919081815260200182805480156107e657602002820191906000526020600020905b8154815260200190600101908083116107d2575b5050505050905090565b60005481565b813373ffffffffffffffffffffffffffffffffffffffff166001828154811061081b57fe5b906000526020600020906004020160000160009054906101000a900473ffffffffffffffffffffffffffffffffffffffff1673ffffffffffffffffffffffffffffffffffffffff1614156108a957816001848154811061087757fe5b906000526020600020906004020160020160006101000a81548160ff021916908360068111156108a357fe5b02179055505b505050565b6040518060800160405280600073ffffffffffffffffffffffffffffffffffffffff16815260200160608152602001600060068111156108ea57fe5b8152602001600081525090565b828054600181600116156101000203166002900490600052602060002090601f016020900481019282601f1061093857805160ff1916838001178555610966565b82800160010185558215610966579182015b8281111561096557825182559160200191906001019061094a565b5b5090506109739190610977565b5090565b61099991905b8082111561099557600081600090555060010161097d565b5090565b9056fea165627a7a723058201eaa02f0a834e11d2341e7010474aa51ef5a323a5a19ec0acaac1b340832322f0029",
  "source": "pragma solidity >0.5.4;\n\ncontract TaskManager {\n  uint256 public nTasks;\n\n  enum TaskPhase {\n    ToDo,\n    InProgress,\n    Done,\n    Blocked,\n    Review,\n    Postponed,\n    Canceled\n  }\n\n  struct TaskStruct {\n    address owner;\n    string name;\n    TaskPhase phase;\n    uint256 priority;\n  }\n\n  TaskStruct[] private tasks;\n\n  mapping(address => uint256[]) private myTasks;\n\n  event TaskAdded(\n    address owner,\n    string name,\n    TaskPhase phase,\n    uint256 priority\n  );\n\n  modifier onlyOwner(uint256 _taskIndex) {\n    if (tasks[_taskIndex].owner == msg.sender) {\n      _;\n    }\n  }\n\n  constructor() public {\n    nTasks = 0;\n  }\n\n  function getTask(uint256 _taskIndex)\n    public\n    view\n    returns (\n      address owner,\n      string memory name,\n      TaskPhase phase,\n      uint256 priority\n    )\n  {\n    owner = tasks[_taskIndex].owner;\n    name = tasks[_taskIndex].name;\n    phase = tasks[_taskIndex].phase;\n    priority = tasks[_taskIndex].priority;\n  }\n\n  function listMyTasks() public view returns (uint256[] memory) {\n    return myTasks[msg.sender];\n  }\n\n  function addTask(\n    string memory _name,\n    TaskPhase _phase,\n    uint256 _priority\n  ) public returns (uint256 index) {\n    require(\n      (_priority >= 1 && _priority <= 5),\n      \"priority must be between 1 and 5\"\n    );\n\n    TaskStruct memory taskAux = TaskStruct({\n      owner: msg.sender,\n      name: _name,\n      phase: _phase,\n      priority: _priority\n    });\n\n    tasks.push(taskAux);\n\n    index = tasks.length - 1;\n\n    nTasks++;\n\n    myTasks[msg.sender].push(index);\n\n    emit TaskAdded(msg.sender, _name, _phase, _priority);\n  }\n\n  function updatePhase(uint256 _taskIndex, TaskPhase _phase)\n    public\n    onlyOwner(_taskIndex)\n  {\n    tasks[_taskIndex].phase = _phase;\n  }\n}\n",
  "sourcePath": "/home/lucas/Projects/ufla/tcc/microsoft-reactor-learn-solidity/contracts/TaskManager.sol",
  "compiler": {
    "name": "solc",
    "version": "0.5.7+commit.6da8b019.Emscripten.clang"
  },
  "schemaVersion": "3.4.3",
  "updatedAt": "2021-09-06T20:01:21.034Z",
  "networkType": "ethereum",
  "devdoc": {
    "methods": {}
  },
  "userdoc": {
    "methods": {}
  }
}